S0150000736C6565704465746563746F722E73726563BC
S11300000C9434000C9451000C9451000C94510045
S11300100C9451000C9451000C9451000C94510018
S11300200C9451000C9451000C9451000C94510008
S11300300C9451000C9451000C9451000C945100F8
S11300400C9451000C9451000C9451000C945100E8
S11300500C9451000C9451000C9451000C945100D8
S11300600C9451000C94510011241FBECFEFD8E022
S1130070DEBFCDBF11E0A0E0B1E0E2E6F2E002C0F5
S113008005900D92A830B107D9F721E0A8E0B1E0BE
S113009001C01D92AF31B207E1F70E9419010C941F
S11300A02F010C9400000F931F9340911B0150915A
S11300B01C0160911D0170911E0180910F019091AE
S11300C01001A0911101B09112018A019B01081B3A
S11300D0190B2A0B3B0B033311052105310508F4D9
S11300E099C083B1847090E00097B9F4209109011C
S11300F030910A012130310581F420910801211148
S11301000CC0409317015093180160931901709328
S11301101A0110920A01109209010091170110911D
S113012018012091190130911A01401B510B620BE7
S1130130730B409313015093140160931501709352
S113014016010097B9F420910801211113C0009100
S11301500401109105012091060130910701401717
S113016051076207730730F021E02093080128B19A
S1130170216028B9009741F520910801222321F13B
S11301800091130110911401209115013091160171
S113019040910001509101016091020170910301AD
S11301A0041715072607370778F021E02093080184
S11301B025B1206225B91FEF29E638E1115020400E
S11301C03040E1F700C000000197A1F480910901DB
S11301D090910A01892B71F481E090E090930A01D7
S11301E0809309011092080188B18E7F88B985B186
S11301F08F7D85B980911B0190911C01A0911D01F7
S1130200B0911E0180930F0190931001A0931101EE
S1130210B09312011F910F9108952FB7F894609134
S11302200B0170910C0180910D0190910E012FBF73
S1130230089584B1846084B987B18E7F87B984B10D
S11302408F7D84B90E940D0160931B0170931C0182
S113025080931D0190931E010E945300F3CFF894E4
S1050260FFCFCA
S10B0262D0070000E8030000CE
S9030000FC
